:100000000C942A000C943F000C943F000C943F0089
:100010000C943F000C943F000C943F000C943F0064
:100020000C943F000C943F000C943F000C943F0054
:100030000C943F000C943F000C943F000C943F0044
:100040000C943F000C943F000C943F000C943F0034
:100050000C943F0011241FBECFE5D8E0DEBFCDBF1A
:1000600010E0A0E6B0E0EAE8F3E302C005900D92EC
:10007000A03CB107D9F70E9496180C94C3190C94B0
:100080000000EF92FF920F931F937B018C0120E001
:1000900030E040E05FE40E94ED0388238CF0C8016B
:1000A000B70120E030E040E05FE40E94B9010E9427
:1000B0004D049B01AC01205030404040504806C0E8
:1000C000C801B7010E944D049B01AC01B901CA01EE
:1000D0001F910F91FF90EF900895A0E0B0E0E3E74B
:1000E000F0E00C944719DC012B01FA019C9192304D
:1000F00008F439C1EB018881823008F433C19430AF
:1001000069F4843009F02FC111969C91119789816F
:10011000981709F428C1A7EAB0E025C1843009F492
:1001200021C18230A9F4923009F01DC19A01AD01BC
:1001300088E0EA010990AE01E90109929E0181502F
:10014000C1F7E201898111969C918923818308C1BD
:10015000923009F407C112962D903C901397EB0151
:100160008A819B811496AD90BD90CD90DC901797BD
:10017000EC80FD800E811F819101281B390BB90194
:1001800037FF04C066277727621B730B6032710547
:100190000CF061C0121613066CF537014801062EEB
:1001A00004C096948794779467940A94D2F721E0D8
:1001B00030E040E050E004C0220F331F441F551FC1
:1001C0006A95D2F721503040404050402E213F21C7
:1001D00040235123211531054105510521F021E02E
:1001E00030E040E050E079018A01E628F72808294C
:1001F00019293CC0232BD1F1260E371E35014601AB
:10020000062E04C096948794779467940A94D2F744
:1002100021E030E040E050E004C0220F331F441FD3
:10022000551F6A95D2F721503040404050402A2156
:100230003B214C215D21211531054105510521F05E
:1002400021E030E040E050E059016A01A628B728DB
:10025000C828D9280BC0821593052CF01C01AA24AC
:10026000BB24650103C0EE24FF24870111969C91F5
:10027000D20111968C91981709F445C0992339F051
:10028000A80197012A193B094C095D0906C0A6017E
:1002900095012E193F09400B510B57FD08C01182E3
:1002A0003382228224833583468357831DC081E0B5
:1002B00081833382228288279927DC01821B930B5A
:1002C000A40BB50B84839583A683B7830DC0220F3F
:1002D000331F441F551F24833583468357838281F0
:1002E000938101979383828324813581468157814D
:1002F000DA01C9010197A109B1098F5F9F4FAF4F83
:10030000BF4328F30BC0918333822282EA0CFB1C8B
:100310000C1D1D1DE482F5820683178383E0808314
:10032000248135814681578157FF1AC0C901AA2708
:1003300097FDA095BA2F81709070A070B0705695FF
:10034000479537952795822B932BA42BB52B848328
:100350009583A683B7838281938101969383828359
:10036000DF0101C0D201CD01CDB7DEB7E2E10C94CF
:100370006319A0E2B0E0EFEBF1E00C94531969834C
:100380007A838B839C832D833E834F835887E9E058
:10039000EE2EF12CEC0EFD1ECE010196B7010E944F
:1003A00076058E010F5E1F4FCE010596B8010E94A3
:1003B00076058A8991E089278A8BC701B801AE0149
:1003C000475E5F4F0E946D000E94A104A096E6E088
:1003D0000C946F19A0E2B0E0E0EFF1E00C94531937
:1003E00069837A838B839C832D833E834F835887D5
:1003F000F9E0EF2EF12CEC0EFD1ECE010196B701B7
:100400000E9476058E010F5E1F4FCE010596B80142
:100410000E947605C701B801AE01475E5F4F0E949A
:100420006D000E94A104A096E6E00C946F19A0E272
:10043000B0E0EDE1F2E00C94471969837A838B8395
:100440009C832D833E834F835887CE010196BE0146
:10045000675F7F4F0E947605CE010596BE016F5EF5
:100460007F4F0E9476059985923088F08989823085
:10047000C8F0943019F4823051F404C0843029F467
:10048000923081F487EA90E0C6C0923049F420E0CF
:100490009A858A89981321E02A87CE010996BBC0E4
:1004A000823049F420E09A858A89981321E02A8BCA
:1004B000CE014196B0C02D843E844F8458886D880B
:1004C0007E888F88988CEE24FF248701AA24BB2481
:1004D000650140E050E060E070E0E0E0F0E0C10184
:1004E00081709070892BE9F0E60CF71C081D191D2E
:1004F0009A01AB012A0D3B1D4C1D5D1D80E090E073
:10050000A0E0B0E0E614F7040805190520F481E046
:1005100090E0A0E0B0E0BA01A901480F591F6A1F9E
:100520007B1FAA0CBB1CCC1CDD1C97FE08C081E005
:1005300090E0A0E0B0E0A82AB92ACA2ADB2A3196C6
:10054000E032F10549F0660C771C881C991C569422
:10055000479437942794C3CFFA85EA892B893C893D
:100560008B859C85280F391F2E5F3F4F17C0CA010E
:1005700081709070892B61F016950795F794E79438
:1005800080E090E0A0E0B0E8E82AF92A0A2B1B2BD3
:1005900076956795579547952F5F3F4F77FDE7CF46
:1005A0000CC0440F551F661F771F17FD4160EE0CEE
:1005B000FF1C001F111F21503040403090E05907B0
:1005C00090E0690790E4790760F32B8F3C8FDB01A3
:1005D000CA018F779070A070B07080349105A1052A
:1005E000B10561F447FD0AC0E114F10401051105EC
:1005F00029F0405C5F4F6F4F7F4F40781A8EFE1797
:1006000011F081E08A8F4D8F5E8F6F8F78A383E02A
:10061000898FCE0149960E94A104A096E2E10C9434
:100620006319A8E1B0E0E7E1F3E00C944F196983A6
:100630007A838B839C832D833E834F835887B9E0D5
:10064000EB2EF12CEC0EFD1ECE010196B7010E949F
:1006500076058E010F5E1F4FCE010596B8010E94F0
:1006600076052985223008F47EC03989323010F4AD
:10067000B8017CC08A859A8989278A87243011F03D
:10068000223031F4231709F06EC067EA70E06EC0C3
:10069000343039F41D861E861F86188A1C861B86F8
:1006A00004C0323021F484E08987B7015FC02B8514
:1006B0003C858B899C89281B390B3C872B87ED84D3
:1006C000FE840F851889AD88BE88CF88D88CEA143F
:1006D000FB040C051D0540F4EE0CFF1C001F111F50
:1006E000215030403C872B8720E030E040E050E054
:1006F00080E090E0A0E0B0E460E070E0EA14FB0489
:100700000C051D0540F0282B392B4A2B5B2BEA18D2
:10071000FB080C091D09B695A79597958795EE0CD2
:10072000FF1C001F111F6F5F7F4F6F31710531F785
:10073000DA01C9018F779070A070B0708034910594
:10074000A105B10561F427FD0AC0E114F10401051A
:10075000110529F0205C3F4F4F4F5F4F20782D87C8
:100760003E874F87588BBE01675F7F4FCB010E944A
:10077000A1046896EAE00C946B19A8E1B0E0E3EC00
:10078000F3E00C94531969837A838B839C832D83C4
:100790003E834F83588789E0E82EF12CEC0EFD1E36
:1007A000CE010196B7010E9476058E010F5E1F4FA4
:1007B000CE010596B8010E9476058985823040F009
:1007C0008989823028F0C701B8010E94EE0501C076
:1007D0008FEF6896E6E00C946F19A8E1B0E0E3EFC4
:1007E000F3E00C94531969837A838B839C832D8364
:1007F0003E834F83588789E0E82EF12CEC0EFD1ED6
:10080000CE010196B7010E9476058E010F5E1F4F43
:10081000CE010596B8010E9476058985823040F0A8
:100820008989823028F0C701B8010E94EE0501C015
:100830008FEF6896E6E00C946F19A8E1B0E0E3E270
:10084000F4E00C94531969837A838B839C832D8302
:100850003E834F83588789E0E82EF12CEC0EFD1E75
:10086000CE010196B7010E9476058E010F5E1F4FE3
:10087000CE010596B8010E9476058985823040F048
:100880008989823028F0C701B8010E94EE0501C0B5
:1008900081E06896E6E00C946F19ACE0B0E0E3E527
:1008A000F4E00C94571969837A838B839C83CE017F
:1008B0000196BE016B5F7F4F0E9476058D8182306D
:1008C00061F1823050F1843021F48E81882351F11E
:1008D0002EC02F81388537FD20C06E812F31310524
:1008E0001CF06623F9F023C08EE190E0821B930B8D
:1008F00029853A854B855C8504C056954795379583
:1009000027958A95D2F76623B1F05095409530959A
:1009100021953F4F4F4F5F4F0EC020E030E040E049
:1009200050E009C02FEF3FEF4FEF5FE704C020E03A
:1009300030E040E050E8B901CA012C96E2E00C94A6
:100940007319DF92EF92FF920F931F93FC01E480E3
:10095000F58006811781D1808081823048F480E063
:1009600090E0A0E1B0E0E82AF92A0A2B1B2BA5C0F1
:10097000843009F49FC0823021F4EE24FF248701E3
:1009800005C0E114F1040105110519F4E0E0F0E0FF
:1009900096C0628173819FEF623879070CF05BC06B
:1009A00022E83FEF261B370B2A3131052CF020E0DF
:1009B00030E040E050E02AC0B801A701022E04C098
:1009C00076956795579547950A94D2F781E090E020
:1009D000A0E0B0E004C0880F991FAA1FBB1F2A9592
:1009E000D2F70197A109B1098E219F21A023B1233C
:1009F0000097A105B10521F081E090E0A0E0B0E012
:100A00009A01AB01282B392B4A2B5B2BDA01C90148
:100A10008F779070A070B07080349105A105B105FA
:100A200039F427FF09C0205C3F4F4F4F5F4F04C090
:100A3000215C3F4F4F4F5F4FE0E0F0E02030A0E0FF
:100A40003A07A0E04A07A0E45A0710F0E1E0F0E01E
:100A500079018A0127C06038710564F5FB01E1580E
:100A6000FF4FD801C7018F779070A070B0708034AD
:100A70009105A105B10539F4E7FE0DC080E490E0D1
:100A8000A0E0B0E004C08FE390E0A0E0B0E0E80EAA
:100A9000F91E0A1F1B1F17FF05C016950795F7942F
:100AA000E794319687E016950795F794E7948A9531
:100AB000D1F705C0EE24FF248701EFEFF0E06E2FA1
:100AC000679566276795902F9F77D794DD24D794F5
:100AD0008E2F8695492F462B582F5D29B701CA01C5
:100AE0001F910F91FF90EF90DF900895FC01DB01C3
:100AF000408151812281622F6F7770E0221F22276F
:100B0000221F9381892F880F822B282F30E0991F75
:100B10009927991F11969C93119721153105A9F5D5
:100B2000411551056105710511F482E037C082E875
:100B30009FEF13969C938E9312979A01AB0167E0F7
:100B4000220F331F441F551F6A95D1F783E08C9302
:100B50000DC0220F331F441F551F12968D919C917B
:100B60001397019713969C938E931297203080E0F1
:100B7000380780E0480780E4580758F314962D930F
:100B80003D934D935C93179708952F3F310579F46A
:100B9000411551056105710519F484E08C930895A0
:100BA00064FF03C081E08C9312C01C9210C02F57C9
:100BB000304013963C932E93129783E08C9387E0FA
:100BC000440F551F661F771F8A95D1F770641496DE
:100BD0004D935D936D937C93179708951F93DC015C
:100BE000FB019C91923008F447C08081823008F468
:100BF00043C0943051F411961C91843099F5818151
:100C0000682F70E0611B71093FC0843021F0923081
:100C100031F48230B9F18181882389F12DC0119698
:100C20001C9111978230F1F081811817D9F4129636
:100C30002D913C911397828193818217930794F0B1
:100C400028173907BCF014968D919D910D90BC9199
:100C5000A02D2481358146815781281739074A07FD
:100C60005B0718F4112341F00AC082179307A40709
:100C7000B50740F4112319F061E070E005C06FEF93
:100C80007FEF02C060E070E0CB011F910895DF9319
:100C9000CF93CDB7DEB7A7E3B0E0E7E3F0E0808124
:100CA000806B8C93ADE2B0E0EDE2F0E08081826594
:100CB0008C93CF91DF910895DF93CF930F92CDB7AF
:100CC000DEB78983EFE2F0E089818083EEE2F0E035
:100CD00080818823DCF7EFE2F0E080810F90CF91F4
:100CE000DF910895DF93CF93CDB7DEB7E7E3F0E070
:100CF00080E48083EDE2F0E080E48083CF91DF91B7
:100D00000895DF93CF93CDB7DEB727970FB6F8944A
:100D1000DEBF0FBECDBF89836A834B838B8188235F
:100D200009F074C08981282F30E03F832E838E81A3
:100D30009F818130910559F12E813F81223031050B
:100D40002CF48E819F81009769F0D2C02E813F8163
:100D50002230310589F18E819F818330910509F41C
:100D600040C0C6C0AAE3B0E0EAE3F0E08081482FCB
:100D70008A81282F30E081E090E0022E02C0880FA7
:100D8000991F0A94E2F7809584238C93B1C0A7E35E
:100D9000B0E0E7E3F0E08081482F8A81282F30E03F
:100DA00081E090E0022E02C0880F991F0A94E2F7BA
:100DB000809584238C939CC0A4E3B0E0E4E3F0E04E
:100DC0008081482F8A81282F30E081E090E0022E38
:100DD00002C0880F991F0A94E2F7809584238C93B0
:100DE00087C0A1E3B0E0E1E3F0E08081482F8A8191
:100DF000282F30E081E090E0022E02C0880F991F7A
:100E00000A94E2F7809584238C9372C08B818130A1
:100E100009F06EC08981282F30E03D832C838C81BE
:100E20009D818130910549F12C813D812230310530
:100E30002CF48C819D81009761F05AC02C813D81FA
:100E40002230310571F18C819D8183309105E9F16A
:100E50004FC0AAE3B0E0EAE3F0E08081482F8A8146
:100E6000282F30E081E090E0022E02C0880F991F09
:100E70000A94E2F7842B8C933BC0A7E3B0E0E7E34E
:100E8000F0E08081482F8A81282F30E081E090E0D7
:100E9000022E02C0880F991F0A94E2F7842B8C93CC
:100EA00027C0A4E3B0E0E4E3F0E08081482F8A812A
:100EB000282F30E081E090E0022E02C0880F991FB9
:100EC0000A94E2F7842B8C9313C0A1E3B0E0E1E332
:100ED000F0E08081482F8A81282F30E081E090E087
:100EE000022E02C0880F991F0A94E2F7842B8C937C
:100EF00027960FB6F894DEBF0FBECDBFCF91DF911E
:100F00000895DF93CF93CDB7DEB727970FB6F89448
:100F1000DEBF0FBECDBF89836A834B838B8188235D
:100F200009F074C08981282F30E03F832E838E81A1
:100F30009F818130910559F12E813F812230310509
:100F40002CF48E819F81009769F0D2C02E813F8161
:100F50002230310589F18E819F818330910509F41A
:100F600040C0C6C0ABE3B0E0EBE3F0E08081482FC7
:100F70008A81282F30E081E090E0022E02C0880FA5
:100F8000991F0A94E2F7809584238C93B1C0A8E35B
:100F9000B0E0E8E3F0E08081482F8A81282F30E03C
:100FA00081E090E0022E02C0880F991F0A94E2F7B8
:100FB000809584238C939CC0A5E3B0E0E5E3F0E04A
:100FC0008081482F8A81282F30E081E090E0022E36
:100FD00002C0880F991F0A94E2F7809584238C93AE
:100FE00087C0A2E3B0E0E2E3F0E08081482F8A818D
:100FF000282F30E081E090E0022E02C0880F991F78
:101000000A94E2F7809584238C9372C08B8181309F
:1010100009F06EC08981282F30E03D832C838C81BC
:101020009D818130910549F12C813D81223031052E
:101030002CF48C819D81009761F05AC02C813D81F8
:101040002230310571F18C819D8183309105E9F168
:101050004FC0ABE3B0E0EBE3F0E08081482F8A8142
:10106000282F30E081E090E0022E02C0880F991F07
:101070000A94E2F7842B8C933BC0A8E3B0E0E8E34A
:10108000F0E08081482F8A81282F30E081E090E0D5
:10109000022E02C0880F991F0A94E2F7842B8C93CA
:1010A00027C0A5E3B0E0E5E3F0E08081482F8A8126
:1010B000282F30E081E090E0022E02C0880F991FB7
:1010C0000A94E2F7842B8C9313C0A2E3B0E0E2E32E
:1010D000F0E08081482F8A81282F30E081E090E085
:1010E000022E02C0880F991F0A94E2F7842B8C937A
:1010F00027960FB6F894DEBF0FBECDBFCF91DF911C
:101100000895DF93CF9300D000D00F92CDB7DEB714
:101110008A836B838FEF89838A81282F30E03D8318
:101120002C834C815D814130510541F18C819D8141
:101130008230910534F42C813D812115310561F017
:1011400052C04C815D814230510551F18C819D81AD
:1011500083309105B9F147C0E9E3F0E08081282FA1
:1011600030E08B81882F90E0A90102C0559547950A
:101170008A95E2F7CA018170898335C0E6E3F0E021
:101180008081282F30E08B81882F90E0A90102C058
:10119000559547958A95E2F7CA018170898323C0E6
:1011A000E3E3F0E08081282F30E08B81882F90E00E
:1011B000A90102C0559547958A95E2F7CA01817049
:1011C000898311C0E0E3F0E08081282F30E08B813B
:1011D000882F90E0A90102C0559547958A95E2F7BE
:1011E000CA018170898389810F900F900F900F90B1
:1011F0000F90CF91DF910895DF93CF9300D000D06F
:10120000CDB7DEB789836A838981282F30E03C839C
:101210002B838B819C8181309105D1F02B813C8186
:10122000223031052CF48B819C81009761F01EC027
:101230002B813C812230310581F08B819C81833070
:10124000910581F013C0EAE3F0E08A8180830EC04B
:10125000E7E3F0E08A81808309C0E4E3F0E08A817B
:10126000808304C0E1E3F0E08A8180830F900F90D7
:101270000F900F90CF91DF910895DF93CF9300D01F
:1012800000D0CDB7DEB789836A838981282F30E00B
:101290003C832B838B819C8181309105D1F02B8104
:1012A0003C81223031052CF48B819C81009761F0C8
:1012B0001EC02B813C812230310581F08B819C81C5
:1012C0008330910581F013C0EBE3F0E08A818083E5
:1012D0000EC0E8E3F0E08A81808309C0E5E3F0E036
:1012E0008A81808304C0E2E3F0E08A8180830F90EA
:1012F0000F900F900F90CF91DF910895DF93CF93D0
:1013000000D000D0CDB7DEB789836A838981282FCA
:1013100030E03C832B838B819C818130910549F1A6
:101320002B813C81223031052CF48B819C810097EC
:1013300061F05AC02B813C812230310571F18B81E3
:101340009C8183309105E9F14FC0ABE3B0E0EBE362
:10135000F0E08081482F8A81282F30E081E090E002
:10136000022E02C0880F991F0A94E2F784278C93FB
:101370003BC0A8E3B0E0E8E3F0E08081482F8A8139
:10138000282F30E081E090E0022E02C0880F991FE4
:101390000A94E2F784278C9327C0A5E3B0E0E5E345
:1013A000F0E08081482F8A81282F30E081E090E0B2
:1013B000022E02C0880F991F0A94E2F784278C93AB
:1013C00013C0A2E3B0E0E2E3F0E08081482F8A811D
:1013D000282F30E081E090E0022E02C0880F991F94
:1013E0000A94E2F784278C930F900F900F900F9040
:1013F000CF91DF910895DF93CF93CDB7DEB7A7E20A
:10140000B0E0E7E2F0E0808180648C93A7E2B0E096
:10141000E7E2F0E080818F778C93A7E2B0E0E7E22B
:10142000F0E080818F7D8C93A6E2B0E0E6E2F0E010
:1014300080818E7F8C93A6E2B0E0E6E2F0E08081CE
:1014400082608C93A6E2B0E0E6E2F0E08081846006
:101450008C93A6E2B0E0E6E2F0E0808180688C93B5
:10146000CF91DF910895DF93CF930F92CDB7DEB781
:1014700089838981883040F5A7E2B0E0E7E2F0E0B7
:101480008081807E8C93A7E2B0E0E7E2F0E090817B
:101490008981892B8C93A6E2B0E0E6E2F0E08081BE
:1014A00080648C93E6E2F0E0808182958F70882FD3
:1014B00090E0817090700097A9F3A6E2B0E0E6E2B8
:1014C000F0E0808180618C93E4E2F0E080819181A2
:1014D0000F90CF91DF9108950F931F93DF93CF93D8
:1014E000CDB7DEB7C455D0400FB6F894DEBF0FBEFF
:1014F000CDBF83E06FEF0E94FC0881E060E041E037
:101500000E94810681E061E041E00E948106FE01C7
:10151000EF5AFF4F80E090E0A0EFB1E48083918329
:10152000A283B3838E01035B1F4FFE01EF5AFF4F6F
:10153000608171818281938120E030E04AEF54E440
:101540000E941702DC01CB01F80180839183A28302
:10155000B383FE01E35BFF4F6081718182819381E0
:1015600020E030E040E85FE30E941D04882344F45B
:10157000FE01E55BFF4F81E090E09183808364C0D2
:10158000FE01E35BFF4F608171818281938120E0E6
:101590003FEF4FE757E40E94BD0318160CF043C01D
:1015A000FE01EF5AFF4F608171818281938120E0BB
:1015B00030E040E251E40E941702DC01CB018E01D1
:1015C000055B1F4FBC01CD010E944100DC01CB0136
:1015D000F801918380831FC0FE01E75BFF4F88EC19
:1015E00090E091838083FE01E75BFF4F80819181D2
:1015F0000197F1F7FE01E75BFF4F91838083DE01E6
:10160000A55BBF4FFE01E55BFF4F80819181019794
:1016100011969C938E93FE01E55BFF4F8081918133
:101620000097D1F627C08E01055B1F4FFE01E35BDB
:10163000FF4F60817181828193810E944100DC01B2
:10164000CB01F80191838083DE01A95BBF4FFE01CE
:10165000E55BFF4F808191818D939C93FE01E95B57
:10166000FF4F808191810197F1F7FE01E95BFF4F08
:101670009183808382E00E94A20DFE01ED5BFF4F0B
:1016800080E090E0A0E7B1E480839183A283B383FC
:101690008E01015C1F4FFE01ED5BFF4F6081718188
:1016A0008281938120E030E04AEF54E40E941702E7
:1016B000DC01CB01F80180839183A283B383FE0117
:1016C000FF96608171818281938120E030E040E863
:1016D0005FE30E941D0488232CF481E090E09EAF1C
:1016E0008DAF46C0FE01FF9660817181828193813A
:1016F00020E03FEF4FE757E40E94BD03181664F562
:10170000FE01ED5BFF4F608171818281938120E05A
:1017100030E040E251E40E941702DC01CB01BC0141
:10172000CD010E944100DC01CB019EAF8DAF0FC007
:1017300088EC90E09CAF8BAF8BAD9CAD0197F1F73F
:101740009CAF8BAF8DAD9EAD01979EAF8DAF8DAD34
:101750009EAD009769F716C0FE01FF96608171810A
:10176000828193810E944100DC01CB019EAF8DAF4D
:101770008DAD9EAD9AAF89AF89AD9AAD0197F1F766
:101780009AAF89AF88E30E94A20D80E090E0A0E8C4
:10179000BFE38DAB9EABAFABB8AF6DA97EA98FA9F0
:1017A00098AD20E030E04AEF54E40E941702DC01DB
:1017B000CB0189AB9AABABABBCAB69A97AA98BA9BE
:1017C0009CA920E030E040E85FE30E941D048823EC
:1017D0002CF481E090E098AB8FA73FC069A97AA96B
:1017E0008BA99CA920E03FEF4FE757E40E94BD037F
:1017F00018164CF56DA97EA98FA998AD20E030E0B0
:1018000040E251E40E941702DC01CB01BC01CD0192
:101810000E944100DC01CB0198AB8FA70FC088EC80
:1018200090E09EA78DA78DA59EA50197F1F79EA795
:101830008DA78FA598A9019798AB8FA78FA598A979
:10184000009769F714C069A97AA98BA99CA90E947D
:101850004100DC01CB0198AB8FA78FA598A99CA76D
:101860008BA78BA59CA50197F1F79CA78BA78CE074
:101870000E94A20D80E090E0A0E8BFE38FA398A7AC
:10188000A9A7BAA76FA178A589A59AA520E030E0FD
:101890004AEF54E40E941702DC01CB018BA39CA306
:1018A000ADA3BEA36BA17CA18DA19EA120E030E0E1
:1018B00040E85FE30E941D0488232CF481E090E05F
:1018C0009AA389A33FC06BA17CA18DA19EA120E01A
:1018D0003FEF4FE757E40E94BD0318164CF56FA188
:1018E00078A589A59AA520E030E040E251E40E9465
:1018F0001702DC01CB01BC01CD010E944100DC01DB
:10190000CB019AA389A30FC088EC90E098A38F8F96
:101910008F8D98A10197F1F798A38F8F89A19AA134
:1019200001979AA389A389A19AA1009769F714C086
:101930006BA17CA18DA19EA10E944100DC01CB0185
:101940009AA389A389A19AA19E8F8D8F8D8D9E8D3B
:101950000197F1F79E8F8D8F81E00E94A20D80E0AC
:1019600090E0A0E0B0E4898F9A8FAB8FBC8F698D37
:101970007A8D8B8D9C8D20E030E04AEF54E40E94FC
:101980001702DC01CB018D8B9E8BAF8BB88F6D89DD
:101990007E898F89988D20E030E040E85FE30E94E7
:1019A0001D0488232CF481E090E09C8B8B8B3FC03E
:1019B0006D897E898F89988D20E03FEF4FE757E44E
:1019C0000E94BD0318164CF5698D7A8D8B8D9C8D08
:1019D00020E030E040E251E40E941702DC01CB013C
:1019E000BC01CD010E944100DC01CB019C8B8B8BA3
:1019F0000FC088EC90E09A8B898B89899A8901972E
:101A0000F1F79A8B898B8B899C8901979C8B8B8BA7
:101A10008B899C89009769F714C06D897E898F89AD
:101A2000988D0E944100DC01CB019C8B8B8B8B89B4
:101A30009C89988B8F878F8598890197F1F7988B70
:101A40008F8786E00E94A20D80E090E0A0E7B1E4DD
:101A50008B879C87AD87BE876B857C858D859E85B2
:101A600020E030E04AEF54E40E941702DC01CB0191
:101A70008F839887A987BA876F81788589859A85AA
:101A800020E030E040E85FE30E941D0488232CF44E
:101A900081E090E09E838D833FC06F81788589854A
:101AA0009A8520E03FEF4FE757E40E94BD031816E8
:101AB0004CF56B857C858D859E8520E030E040E28D
:101AC00051E40E941702DC01CB01BC01CD010E9450
:101AD0004100DC01CB019E838D830FC088EC90E038
:101AE0009C838B838B819C810197F1F79C838B83F3
:101AF0008D819E8101979E838D838D819E8100972C
:101B000069F714C06F81788589859A850E944100A4
:101B1000DC01CB019E838D838D819E819A83898395
:101B200089819A810197F1F79A838983CC5ADF4F93
:101B30000FB6F894DEBF0FBECDBFCF91DF911F91DE
:101B40000F9108950F931F93DF93CF93CDB7DEB717
:101B5000CF56D0400FB6F894DEBF0FBECDBFFE010A
:101B6000E159FF4F808381E060E040E00E948107FF
:101B7000FE01E559FF4F80E090E0A0E8BFE38083DD
:101B80009183A283B3838E0109591F4FFE01E5594A
:101B9000FF4F60817181828193812BEA3AEA4AE2A8
:101BA00050E40E941702DC01CB01F801808391838D
:101BB000A283B383FE01E959FF4F60817181828165
:101BC000938120E030E040E85FE30E941D04882319
:101BD00034F4FE01EA59FF4F81E08083E0C0FE014A
:101BE000E959FF4F608171818281938120E030E06B
:101BF0004FE753E40E94BD0318160CF0C0C0FE016D
:101C0000E559FF4F608171818281938120E030E04E
:101C10004AE754E40E941103DC01CB01FE01EE59B6
:101C2000FF4F80839183A283B3838E01025A1F4F9B
:101C3000FE01EE59FF4F608171818281938120E026
:101C400030E04AEF54E40E941702DC01CB01F801B6
:101C500080839183A283B383FE01E25AFF4F6081A8
:101C600071818281938120E030E040E85FE30E944F
:101C70001D04882344F4FE01E45AFF4F81E090E004
:101C80009183808364C0FE01E25AFF4F60817181BD
:101C90008281938120E03FEF4FE757E40E94BD032C
:101CA00018160CF043C0FE01EE59FF4F60817181A0
:101CB0008281938120E030E040E251E40E941702EB
:101CC000DC01CB018E01045A1F4FBC01CD010E94E3
:101CD0004100DC01CB01F801918380831FC0FE012C
:101CE000E65AFF4F88EC90E091838083FE01E65A2C
:101CF000FF4F808191810197F1F7FE01E65AFF4F76
:101D000091838083DE01A45ABF4FFE01E45AFF4F46
:101D100080819181019711969C938E93FE01E45AE4
:101D2000FF4F808191810097D1F64BC08E01045AFC
:101D30001F4FFE01E25AFF4F6081718182819381C2
:101D40000E944100DC01CB01F80191838083DE0118
:101D5000A85ABF4FFE01E45AFF4F8081918111962E
:101D60009C938E93FE01E85AFF4F808191810197E9
:101D7000F1F7FE01E85AFF4F9183808322C08E0164
:101D80000A591F4FFE01E959FF4F6081718182811D
:101D900093810E944100DC01CB01F8018083DE01C8
:101DA000A95ABF4FFE01EA59FF4F80818C93FE0173
:101DB000E95AFF4F80818A95F1F7FE01E95AFF4FFA
:101DC000808381E061E041E00E948107FE01ED5ADD
:101DD000FF4F80E090E0A0E8BFE380839183A2837F
:101DE000B3838E01015B1F4FFE01ED5AFF4F6081EF
:101DF0007181828193812BEA3AEA4AE250E40E949F
:101E00001702DC01CB01F80180839183A283B383A5
:101E1000FE01E15BFF4F608171818281938120E04F
:101E200030E040E85FE30E941D04882334F4FE01A3
:101E3000E25BFF4F81E08083E0C0FE01E15BFF4F8A
:101E4000608171818281938120E030E04FE753E42B
:101E50000E94BD0318160CF0C0C0FE01ED5AFF4FE2
:101E6000608171818281938120E030E04AE754E40F
:101E70000E941103DC01CB01FE01E65BFF4F808372
:101E80009183A283B3838E010A5B1F4FFE01E65B41
:101E9000FF4F608171818281938120E030E04AEFC1
:101EA00054E40E941702DC01CB01F8018083918386
:101EB000A283B383FE01EA5BFF4F6081718182815F
:101EC000938120E030E040E85FE30E941D04882316
:101ED00044F4FE01EC5BFF4F81E090E0918380834E
:101EE00064C0FE01EA5BFF4F608171818281938152
:101EF00020E03FEF4FE757E40E94BD0318160CF0B7
:101F000043C0FE01E65BFF4F608171818281938156
:101F100020E030E040E251E40E941702DC01CB01F6
:101F20008E010C5B1F4FBC01CD010E944100DC0102
:101F3000CB01F801918380831FC0FE01EE5BFF4F50
:101F400088EC90E091838083FE01EE5BFF4F8081FF
:101F500091810197F1F7FE01EE5BFF4F9183808342
:101F6000DE01AC5BBF4FFE01EC5BFF4F80819181D6
:101F7000019711969C938E93FE01EC5BFF4F80813D
:101F800091810097D1F642C08E010C5B1F4FFE017C
:101F9000EA5BFF4F60817181828193810E944100E1
:101FA000DC01CB01F80191838083DE01A05CBF4F8F
:101FB000FE01EC5BFF4F8081918111969C938E9383
:101FC000FE01E05CFF4F808191810197F1F7FE01F6
:101FD000E05CFF4F9183808319C08E01025B1F4F2D
:101FE000FE01E15BFF4F60817181828193810E94DC
:101FF0004100DC01CB01F8018083FE01E25BFF4F71
:1020000080818FAF8FAD8A95F1F78FAFFE01E159D7
:10201000FF4F83E060810E943D0980E090E0A0E8EE
:10202000BFE38BAF9CAFADAFBEAF6BAD7CAD8DAD45
:102030009EAD2BEA3AEA4AE250E40E941702DC0124
:10204000CB018FAB98AFA9AFBAAF6FA978AD89AD0F
:102050009AAD20E030E040E85FE30E941D04882351
:102060001CF481E08EAB91C06FA978AD89AD9AADBB
:1020700020E030E04FE753E40E94BD0318160CF057
:102080007BC06BAD7CAD8DAD9EAD20E030E04AE70E
:1020900054E40E941103DC01CB018AAB9BABACABD7
:1020A000BDAB6AA97BA98CA99DA920E030E04AEFCD
:1020B00054E40E941702DC01CB018EA79FA7A8ABB6
:1020C000B9AB6EA57FA588A999A920E030E040E8CA
:1020D0005FE30E941D0488232CF481E090E09DA71B
:1020E0008CA73FC06EA57FA588A999A920E03FEFE6
:1020F0004FE757E40E94BD0318164CF56AA97BA967
:102100008CA99DA920E030E040E251E40E94170232
:10211000DC01CB01BC01CD010E944100DC01CB01FF
:102120009DA78CA70FC088EC90E09BA78AA78AA5E3
:102130009BA50197F1F79BA78AA78CA59DA5019761
:102140009DA78CA78CA59DA5009769F724C06EA5B7
:102150007FA588A999A90E944100DC01CB019DA718
:102160008CA78CA59DA599A788A788A599A5019757
:10217000F1F799A788A70FC06FA978AD89AD9AAD7F
:102180000E944100DC01CB018EAB8EA98FA38FA1F1
:102190008A95F1F78FA381E061E040E00E9481071A
:1021A00080E090E0A0EAB0E48BA39CA3ADA3BEA323
:1021B0006BA17CA18DA19EA12BEA3AEA4AE250E4F0
:1021C0000E941702DC01CB018F8F98A3A9A3BAA3A9
:1021D0006F8D78A189A19AA120E030E040E85FE30B
:1021E0000E941D0488231CF481E08E8F91C06F8DA6
:1021F00078A189A19AA120E030E04FE753E40E9442
:10220000BD0318160CF07BC06BA17CA18DA19EA113
:1022100020E030E04AE754E40E941103DC01CB01E6
:102220008A8F9B8FAC8FBD8F6A8D7B8D8C8D9D8DA2
:1022300020E030E04AEF54E40E941702DC01CB01B9
:102240008E8B9F8BA88FB98F6E897F89888D998D92
:1022500020E030E040E85FE30E941D0488232CF476
:1022600081E090E09D8B8C8B3FC06E897F89888D4B
:10227000998D20E03FEF4FE757E40E94BD03181609
:102280004CF56A8D7B8D8C8D9D8D20E030E040E299
:1022900051E40E941702DC01CB01BC01CD010E9478
:1022A0004100DC01CB019D8B8C8B0FC088EC90E052
:1022B0009B8B8A8B8A899B890197F1F79B8B8A8BF1
:1022C0008C899D8901979D8B8C8B8C899D8900972A
:1022D00069F724C06E897F89888D998D0E9441009D
:1022E000DC01CB019D8B8C8B8C899D89998B888B94
:1022F000888999890197F1F7998B888B0FC06F8D29
:1023000078A189A19AA10E944100DC01CB018E8FA6
:102310008E8D8F878F858A95F1F78F8781E061E0B9
:1023200041E00E94810780E090E0A0E2B1E48B8769
:102330009C87AD87BE876B857C858D859E8520E0DB
:1023400030E04AEF54E40E941702DC01CB018F8396
:102350009887A987BA876F81788589859A8520E0D3
:1023600030E040E85FE30E941D0488232CF481E004
:1023700090E09E838D833FC06F81788589859A85A3
:1023800020E03FEF4FE757E40E94BD0318164CF5DD
:102390006B857C858D859E8520E030E040E251E4B0
:1023A0000E941702DC01CB01BC01CD010E9441005B
:1023B000DC01CB019E838D830FC088EC90E09C8371
:1023C0008B838B819C810197F1F79C838B838D811B
:1023D0009E8101979E838D838D819E81009769F7F1
:1023E00014C06F81788589859A850E944100DC013F
:1023F000CB019E838D838D819E819A838983898180
:102400009A810197F1F79A838983C159DF4F0FB6FB
:10241000F894DEBF0FBECDBFCF91DF911F910F911A
:1024200008950F931F93DF93CF93CDB7DEB7CF56A9
:10243000D0400FB6F894DEBF0FBECDBFFE01E1590C
:10244000FF4F808381E060E041E00E948107FE0150
:10245000E559FF4F80E090E0A0E8BFE380839183DF
:10246000A283B3838E0109591F4FFE01E559FF4F27
:1024700060817181828193812BEA3AEA4AE250E4D9
:102480000E941702DC01CB01F80180839183A283B3
:10249000B383FE01E959FF4F60817181828193818D
:1024A00020E030E040E85FE30E941D04882334F41C
:1024B000FE01EA59FF4F81E08083E0C0FE01E95947
:1024C000FF4F608171818281938120E030E04FE78E
:1024D00053E40E94BD0318160CF0C0C0FE01E5597C
:1024E000FF4F608171818281938120E030E04AE773
:1024F00054E40E941103DC01CB01FE01EE59FF4FB1
:1025000080839183A283B3838E01025A1F4FFE0101
:10251000EE59FF4F608171818281938120E030E02C
:102520004AEF54E40E941702DC01CB01F8018083DA
:102530009183A283B383FE01E25AFF4F60817181D0
:102540008281938120E030E040E85FE30E941D0437
:10255000882344F4FE01E45AFF4F81E090E0918328
:10256000808364C0FE01E25AFF4F608171818281E5
:10257000938120E03FEF4FE757E40E94BD03181618
:102580000CF043C0FE01EE59FF4F608171818281E2
:10259000938120E030E040E251E40E941702DC0128
:1025A000CB018E01045A1F4FBC01CD010E94410096
:1025B000DC01CB01F801918380831FC0FE01E65A44
:1025C000FF4F88EC90E091838083FE01E65AFF4F35
:1025D000808191810197F1F7FE01E65AFF4F9183C7
:1025E0008083DE01A45ABF4FFE01E45AFF4F808171
:1025F0009181019711969C938E93FE01E45AFF4FAF
:10260000808191810097D1F64BC08E01045A1F4FF3
:10261000FE01E25AFF4F60817181828193810E94A5
:102620004100DC01CB01F80191838083DE01A85ACF
:10263000BF4FFE01E45AFF4F8081918111969C9318
:102640008E93FE01E85AFF4F808191810197F1F747
:10265000FE01E85AFF4F9183808322C08E010A5900
:102660001F4FFE01E959FF4F608171818281938183
:102670000E944100DC01CB01F8018083DE01A95AF0
:10268000BF4FFE01EA59FF4F80818C93FE01E95A4A
:10269000FF4F80818A95F1F7FE01E95AFF4F808351
:1026A00081E061E041E00E948107FE01ED5AFF4FA9
:1026B00080E090E0A0E8BFE380839183A283B383AE
:1026C0008E01015B1F4FFE01ED5AFF4F608171814A
:1026D000828193812BEA3AEA4AE250E40E9417028F
:1026E000DC01CB01F80180839183A283B383FE01D7
:1026F000E15BFF4F608171818281938120E030E056
:1027000040E85FE30E941D04882334F4FE01E25B8D
:10271000FF4F81E08083E0C0FE01E15BFF4F6081FD
:1027200071818281938120E030E04FE753E40E9481
:10273000BD0318160CF0C0C0FE01ED5AFF4F6081BA
:1027400071818281938120E030E04AE754E40E9465
:102750001103DC01CB01FE01E65BFF4F8083918317
:10276000A283B3838E010A5B1F4FFE01E65BFF4F1E
:10277000608171818281938120E030E04AEF54E4EE
:102780000E941702DC01CB01F80180839183A283B0
:10279000B383FE01EA5BFF4F608171818281938187
:1027A00020E030E040E85FE30E941D04882344F409
:1027B000FE01EC5BFF4F81E090E09183808364C079
:1027C000FE01EA5BFF4F608171818281938120E08D
:1027D0003FEF4FE757E40E94BD0318160CF043C0CB
:1027E000FE01E65BFF4F608171818281938120E071
:1027F00030E040E251E40E941702DC01CB018E017F
:102800000C5B1F4FBC01CD010E944100DC01CB01DC
:10281000F801918380831FC0FE01EE5BFF4F88ECBF
:1028200090E091838083FE01EE5BFF4F8081918178
:102830000197F1F7FE01EE5BFF4F91838083DE018C
:10284000AC5BBF4FFE01EC5BFF4F80819181019734
:1028500011969C938E93FE01EC5BFF4F80819181DA
:102860000097D1F642C08E010C5B1F4FFE01EA5B60
:10287000FF4F60817181828193810E944100DC0160
:10288000CB01F80191838083DE01A05CBF4FFE0184
:10289000EC5BFF4F8081918111969C938E93FE019A
:1028A000E05CFF4F808191810197F1F7FE01E05CD0
:1028B000FF4F9183808319C08E01025B1F4FFE0181
:1028C000E15BFF4F60817181828193810E944100B1
:1028D000DC01CB01F8018083FE01E25BFF4F8081C8
:1028E0008FAF8FAD8A95F1F78FAFFE01E159FF4FA2
:1028F00083E060810E943D0980E090E0A0E8BFE3B2
:102900008BAF9CAFADAFBEAF6BAD7CAD8DAD9EADB3
:102910002BEA3AEA4AE250E40E941702DC01CB01BA
:102920008FAB98AFA9AFBAAF6FA978AD89AD9AADAB
:1029300020E030E040E85FE30E941D0488231CF49F
:1029400081E08EAB91C06FA978AD89AD9AAD20E0E2
:1029500030E04FE753E40E94BD0318160CF07BC033
:102960006BAD7CAD8DAD9EAD20E030E04AE754E428
:102970000E941103DC01CB018AAB9BABACABBDABBE
:102980006AA97BA98CA99DA920E030E04AEF54E414
:102990000E941702DC01CB018EA79FA7A8ABB9ABA1
:1029A0006EA57FA588A999A920E030E040E85FE303
:1029B0000E941D0488232CF481E090E09DA78CA741
:1029C0003FC06EA57FA588A999A920E03FEF4FE7FA
:1029D00057E40E94BD0318164CF56AA97BA98CA97F
:1029E0009DA920E030E040E251E40E941702DC01A2
:1029F000CB01BC01CD010E944100DC01CB019DA7B0
:102A00008CA70FC088EC90E09BA78AA78AA59BA5FE
:102A10000197F1F79BA78AA78CA59DA501979DA774
:102A20008CA78CA59DA5009769F724C06EA57FA5EE
:102A300088A999A90E944100DC01CB019DA78CA720
:102A40008CA59DA599A788A788A599A50197F1F7B9
:102A500099A788A70FC06FA978AD89AD9AAD0E94DC
:102A60004100DC01CB018EAB8EA98FA38FA18A958B
:102A7000F1F78FA381E061E040E00E94810780E0F0
:102A800090E0A0EAB0E48BA39CA3ADA3BEA36BA18E
:102A90007CA18DA19EA12BEA3AEA4AE250E40E9471
:102AA0001702DC01CB018F8F98A3A9A3BAA36F8D66
:102AB00078A189A19AA120E030E040E85FE30E947C
:102AC0001D0488231CF481E08E8F91C06F8D78A146
:102AD00089A19AA120E030E04FE753E40E94BD03B2
:102AE00018160CF07BC06BA17CA18DA19EA120E0EB
:102AF00030E04AE754E40E941103DC01CB018A8FE5
:102B00009B8FAC8FBD8F6A8D7B8D8C8D9D8D20E0D2
:102B100030E04AEF54E40E941702DC01CB018E8BB7
:102B20009F8BA88FB98F6E897F89888D998D20E0C2
:102B300030E040E85FE30E941D0488232CF481E02C
:102B400090E09D8B8C8B3FC06E897F89888D998D9D
:102B500020E03FEF4FE757E40E94BD0318164CF505
:102B60006A8D7B8D8C8D9D8D20E030E040E251E4BC
:102B70000E941702DC01CB01BC01CD010E94410083
:102B8000DC01CB019D8B8C8B0FC088EC90E09B8B84
:102B90008A8B8A899B890197F1F79B8B8A8B8C8919
:102BA0009D8901979D8B8C8B8C899D89009769F7F6
:102BB00024C06E897F89888D998D0E944100DC0137
:102BC000CB019D8B8C8B8C899D89998B888B888977
:102BD00099890197F1F7998B888B0FC06F8D78A138
:102BE00089A19AA10E944100DC01CB018E8F8E8DBC
:102BF0008F878F858A95F1F78F8781E061E041E0CB
:102C00000E94810780E090E0A0E2B1E48B879C877E
:102C1000AD87BE876B857C858D859E8520E030E005
:102C20004AEF54E40E941702DC01CB018F8398879E
:102C3000A987BA876F81788589859A8520E030E0F9
:102C400040E85FE30E941D0488232CF481E090E0BB
:102C50009E838D833FC06F81788589859A8520E02A
:102C60003FEF4FE757E40E94BD0318164CF56B8504
:102C70007C858D859E8520E030E040E251E40E9415
:102C80001702DC01CB01BC01CD010E944100DC0137
:102C9000CB019E838D830FC088EC90E09C838B8357
:102CA0008B819C810197F1F79C838B838D819E8121
:102CB00001979E838D838D819E81009769F714C053
:102CC0006F81788589859A850E944100DC01CB015E
:102CD0009E838D838D819E819A83898389819A8148
:102CE0000197F1F79A838983C159DF4F0FB6F894A2
:102CF000DEBF0FBECDBFCF91DF911F910F91089521
:102D0000DF93CF9300D00F92CDB7DEB79B838A833A
:102D100019820EC08981282F30E08A819B81FC01B5
:102D2000E20FF31F80810E94111289818F5F8983D6
:102D30008981282F30E08A819B81FC01E20FF31FFB
:102D40008081882339F70F900F900F90CF91DF91FA
:102D50000895DF93CF93CDB7DEB781E00E94A20D37
:102D6000CF91DF910895DF93CF9300D000D0CDB7FE
:102D7000DEB789836A838981282F30E03C832B83E7
:102D80008B819C818130910531F02B813C812230F7
:102D9000310531F00AC08A8180680E94A20D05C009
:102DA0008A81805C80680E94A20D0F900F900F9026
:102DB0000F90CF91DF910895DF93CF93CDB7DEB71A
:102DC000A2970FB6F894DEBF0FBECDBF80E090E0B3
:102DD0000E94330A9A8B898B89899A89969587955F
:102DE000988B8F878F8598899E012D5E3F4FB90103
:102DF0004AE050E00E947E1982E060E00E94810873
:102E00008823D1F582E061E00E9481088823A1F542
:102E10000E94A91681E060E00E94B31680E690E06F
:102E20000E94801682E060E00E94B31687E690E080
:102E30000E94801681E067E00E94B316CE0143969F
:102E40000E94801682E067E00E94B3168FE690E051
:102E50000E9480168F85988921E08D32920730F08C
:102E600082E067E041E00E94810718C082E067E0ED
:102E700040E00E94810712C00E94A91681E062E032
:102E80000E94B31688E790E00E94801682E063E01B
:102E90000E94B31685E890E00E94801680E090E0E2
:102EA000AAE7B4E48B879C87AD87BE876B857C855A
:102EB0008D859E8520E030E04AEF54E40E941702A1
:102EC000DC01CB018F839887A987BA876F817885CA
:102ED00089859A8520E030E040E85FE30E941D0488
:102EE00088232CF481E090E09E838D833FC06F8126
:102EF000788589859A8520E03FEF4FE757E40E9467
:102F0000BD0318164CF56B857C858D859E8520E06C
:102F100030E040E251E40E941702DC01CB01BC0129
:102F2000CD010E944100DC01CB019E838D830FC047
:102F300088EC90E09C838B838B819C810197F1F7D7
:102F40009C838B838D819E8101979E838D838D8150
:102F50009E81009769F714C06F81788589859A856D
:102F60000E944100DC01CB019E838D838D819E8177
:102F70009A83898389819A810197F1F79A8389835A
:102F8000A2960FB6F894DEBF0FBECDBFCF91DF91F2
:102F90000895DF93CF93CDB7DEB760970FB6F8945F
:102FA000DEBF0FBECDBF188ABCC08889282F30E095
:102FB00080E190E002C0880F991F2A95E2F7982FD0
:102FC00083E0692F0E94FC088889282F30E080E187
:102FD00090E002C0880F991F2A95E2F7982F9095EC
:102FE00083E0692F0E943D0980E090E0A8E4B2E40C
:102FF0008B879C87AD87BE876B857C858D859E85FD
:1030000020E030E04AEF54E40E941702DC01CB01DB
:103010008F839887A987BA876F81788589859A85F4
:1030200020E030E040E85FE30E941D0488232CF498
:1030300081E090E09E838D833FC06F817885898594
:103040009A8520E03FEF4FE757E40E94BD03181632
:103050004CF56B857C858D859E8520E030E040E2D7
:1030600051E40E941702DC01CB01BC01CD010E949A
:103070004100DC01CB019E838D830FC088EC90E082
:103080009C838B838B819C810197F1F79C838B833D
:103090008D819E8101979E838D838D819E81009776
:1030A00069F714C06F81788589859A850E944100EF
:1030B000DC01CB019E838D838D819E819A838983E0
:1030C00089819A810197F1F79A8389831F8623C0AA
:1030D00083E06F850E9481088823D1F48889482F76
:1030E00050E08F85282F30E0CA01880F991F880F84
:1030F000991F820F931FFC01E155FF4F808160965D
:103100000FB6F894DEBF0FBECDBFCF91DF9108950B
:103110008F858F5F8F878F858430D0F288898F5F0E
:10312000888B8889843008F440CF3DCFDF93CF93DC
:10313000CDB7DEB72E970FB6F894DEBF0FBECDBF6A
:1031400082E060E040E00E94810682E060E041E0D1
:103150000E94810782E061E040E00E94810682E0F7
:1031600061E041E00E94810782E067E041E00E9467
:10317000810680E060E040E00E9481060E94FB0939
:103180000E946C0A81E064E00E94B3168FE890E030
:103190000E94801682E061E00E94B31687E990E009
:1031A0000E94801680E090E0AAEFB4E48B879C87B1
:1031B000AD87BE876B857C858D859E8520E030E060
:1031C0004AEF54E40E941702DC01CB018F839887F9
:1031D000A987BA876F81788589859A8520E030E054
:1031E00040E85FE30E941D0488232CF481E090E016
:1031F0009E838D833FC06F81788589859A8520E085
:103200003FEF4FE757E40E94BD0318164CF56B855E
:103210007C858D859E8520E030E040E251E40E946F
:103220001702DC01CB01BC01CD010E944100DC0191
:10323000CB019E838D830FC088EC90E09C838B83B1
:103240008B819C810197F1F79C838B838D819E817B
:1032500001979E838D838D819E81009769F714C0AD
:103260006F81788589859A850E944100DC01CB01B8
:103270009E838D838D819E819A83898389819A81A2
:103280000197F1F79A8389830E94DC16FDCF2F9274
:103290003F924F925F926F927F928F929F92AF92E6
:1032A000BF92CF92DF92EF92FF920F931F93CF9333
:1032B000DF93CDB7DEB7CA1BDB0B0FB6F894DEBFCA
:1032C0000FBECDBF09942A88398848885F846E84F0
:1032D0007D848C849B84AA84B984C884DF80EE803A
:1032E000FD800C811B81AA81B981CE0FD11D0FB643
:1032F000F894DEBF0FBECDBFED010895FB019F0125
:10330000E8944230C4F04532B4F44A3029F497FBD3
:103310001EF4909581959F4F642F77270E94AF19D7
:10332000805D8A330CF0895D8193CB010097A1F712
:1033300016F45DE251931082C9010C949F19DC01CF
:10334000FC01672F71917723E1F7329704C07C91DC
:103350006D9370836291AE17BF07C8F30895AA1BDF
:10336000BB1B51E107C0AA1FBB1FA617B70710F070
:10337000A61BB70B881F991F5A95A9F780959095A2
:0A338000BC01CD010895F894FFCFC1
:10338A0054454D503D20005354415445203A0020A5
:10339A00574F524B494E470053595354454D2020DD
:1033AA004E4F542000434F4E4E4543544544005718
:1033BA00454C434F4D450050524F4A4543542053C4
:1033CA00454E534F5220000000000000000000014B
:1033DA0002034104050642070809432A0023440060
:00000001FF
